{
  "_format": "hh-sol-artifact-1",
  "contractName": "AgentVault",
  "sourceName": "contracts/AgentVault.sol",
  "abi": [
    {
      "inputs": [
        {
          "internalType": "address",
          "name": "_agentNFT",
          "type": "address"
        },
        {
          "internalType": "address",
          "name": "_usdc",
          "type": "address"
        },
        {
          "internalType": "address",
          "name": "_pathUsd",
          "type": "address"
        }
      ],
      "stateMutability": "nonpayable",
      "type": "constructor"
    },
    {
      "inputs": [],
      "name": "EnforcedPause",
      "type": "error"
    },
    {
      "inputs": [],
      "name": "ExpectedPause",
      "type": "error"
    },
    {
      "inputs": [
        {
          "internalType": "address",
          "name": "owner",
          "type": "address"
        }
      ],
      "name": "OwnableInvalidOwner",
      "type": "error"
    },
    {
      "inputs": [
        {
          "internalType": "address",
          "name": "account",
          "type": "address"
        }
      ],
      "name": "OwnableUnauthorizedAccount",
      "type": "error"
    },
    {
      "inputs": [],
      "name": "ReentrancyGuardReentrantCall",
      "type": "error"
    },
    {
      "anonymous": false,
      "inputs": [
        {
          "indexed": true,
          "internalType": "address",
          "name": "newAgentNFT",
          "type": "address"
        }
      ],
      "name": "AgentNFTUpdated",
      "type": "event"
    },
    {
      "anonymous": false,
      "inputs": [
        {
          "indexed": true,
          "internalType": "address",
          "name": "owner",
          "type": "address"
        },
        {
          "indexed": true,
          "internalType": "uint256",
          "name": "agentId",
          "type": "uint256"
        },
        {
          "indexed": true,
          "internalType": "address",
          "name": "token",
          "type": "address"
        },
        {
          "indexed": false,
          "internalType": "uint256",
          "name": "amount",
          "type": "uint256"
        }
      ],
      "name": "Deposited",
      "type": "event"
    },
    {
      "anonymous": false,
      "inputs": [
        {
          "indexed": true,
          "internalType": "address",
          "name": "previousOwner",
          "type": "address"
        },
        {
          "indexed": true,
          "internalType": "address",
          "name": "newOwner",
          "type": "address"
        }
      ],
      "name": "OwnershipTransferred",
      "type": "event"
    },
    {
      "anonymous": false,
      "inputs": [
        {
          "indexed": true,
          "internalType": "address",
          "name": "newPathUsd",
          "type": "address"
        }
      ],
      "name": "PathUsdAddressUpdated",
      "type": "event"
    },
    {
      "anonymous": false,
      "inputs": [
        {
          "indexed": false,
          "internalType": "address",
          "name": "account",
          "type": "address"
        }
      ],
      "name": "Paused",
      "type": "event"
    },
    {
      "anonymous": false,
      "inputs": [
        {
          "indexed": false,
          "internalType": "address",
          "name": "account",
          "type": "address"
        }
      ],
      "name": "Unpaused",
      "type": "event"
    },
    {
      "anonymous": false,
      "inputs": [
        {
          "indexed": true,
          "internalType": "address",
          "name": "newUsdc",
          "type": "address"
        }
      ],
      "name": "UsdcAddressUpdated",
      "type": "event"
    },
    {
      "anonymous": false,
      "inputs": [
        {
          "indexed": true,
          "internalType": "address",
          "name": "owner",
          "type": "address"
        },
        {
          "indexed": true,
          "internalType": "uint256",
          "name": "agentId",
          "type": "uint256"
        },
        {
          "indexed": true,
          "internalType": "address",
          "name": "token",
          "type": "address"
        },
        {
          "indexed": false,
          "internalType": "uint256",
          "name": "amount",
          "type": "uint256"
        }
      ],
      "name": "Withdrawn",
      "type": "event"
    },
    {
      "inputs": [],
      "name": "agentNFT",
      "outputs": [
        {
          "internalType": "contract IERC1155",
          "name": "",
          "type": "address"
        }
      ],
      "stateMutability": "view",
      "type": "function"
    },
    {
      "inputs": [
        {
          "internalType": "uint256",
          "name": "agentId",
          "type": "uint256"
        },
        {
          "internalType": "address",
          "name": "token",
          "type": "address"
        },
        {
          "internalType": "uint256",
          "name": "amount",
          "type": "uint256"
        }
      ],
      "name": "deposit",
      "outputs": [],
      "stateMutability": "nonpayable",
      "type": "function"
    },
    {
      "inputs": [
        {
          "internalType": "address",
          "name": "owner",
          "type": "address"
        },
        {
          "internalType": "uint256",
          "name": "agentId",
          "type": "uint256"
        },
        {
          "internalType": "address",
          "name": "token",
          "type": "address"
        }
      ],
      "name": "getBalance",
      "outputs": [
        {
          "internalType": "uint256",
          "name": "",
          "type": "uint256"
        }
      ],
      "stateMutability": "view",
      "type": "function"
    },
    {
      "inputs": [
        {
          "internalType": "address",
          "name": "owner",
          "type": "address"
        }
      ],
      "name": "getTotalDeposited",
      "outputs": [
        {
          "internalType": "uint256",
          "name": "usdcTotal",
          "type": "uint256"
        },
        {
          "internalType": "uint256",
          "name": "pathTotal",
          "type": "uint256"
        }
      ],
      "stateMutability": "view",
      "type": "function"
    },
    {
      "inputs": [],
      "name": "owner",
      "outputs": [
        {
          "internalType": "address",
          "name": "",
          "type": "address"
        }
      ],
      "stateMutability": "view",
      "type": "function"
    },
    {
      "inputs": [],
      "name": "pathUsdAddress",
      "outputs": [
        {
          "internalType": "address",
          "name": "",
          "type": "address"
        }
      ],
      "stateMutability": "view",
      "type": "function"
    },
    {
      "inputs": [],
      "name": "pause",
      "outputs": [],
      "stateMutability": "nonpayable",
      "type": "function"
    },
    {
      "inputs": [],
      "name": "paused",
      "outputs": [
        {
          "internalType": "bool",
          "name": "",
          "type": "bool"
        }
      ],
      "stateMutability": "view",
      "type": "function"
    },
    {
      "inputs": [],
      "name": "renounceOwnership",
      "outputs": [],
      "stateMutability": "nonpayable",
      "type": "function"
    },
    {
      "inputs": [
        {
          "internalType": "address",
          "name": "user",
          "type": "address"
        },
        {
          "internalType": "uint256",
          "name": "agentId",
          "type": "uint256"
        },
        {
          "internalType": "address",
          "name": "token",
          "type": "address"
        },
        {
          "internalType": "uint256",
          "name": "amount",
          "type": "uint256"
        }
      ],
      "name": "rescueVault",
      "outputs": [],
      "stateMutability": "nonpayable",
      "type": "function"
    },
    {
      "inputs": [
        {
          "internalType": "address",
          "name": "_agentNFT",
          "type": "address"
        }
      ],
      "name": "setAgentNFT",
      "outputs": [],
      "stateMutability": "nonpayable",
      "type": "function"
    },
    {
      "inputs": [
        {
          "internalType": "address",
          "name": "_pathUsd",
          "type": "address"
        }
      ],
      "name": "setPathUsdAddress",
      "outputs": [],
      "stateMutability": "nonpayable",
      "type": "function"
    },
    {
      "inputs": [
        {
          "internalType": "address",
          "name": "_usdc",
          "type": "address"
        }
      ],
      "name": "setUsdcAddress",
      "outputs": [],
      "stateMutability": "nonpayable",
      "type": "function"
    },
    {
      "inputs": [
        {
          "internalType": "address",
          "name": "newOwner",
          "type": "address"
        }
      ],
      "name": "transferOwnership",
      "outputs": [],
      "stateMutability": "nonpayable",
      "type": "function"
    },
    {
      "inputs": [],
      "name": "unpause",
      "outputs": [],
      "stateMutability": "nonpayable",
      "type": "function"
    },
    {
      "inputs": [],
      "name": "usdcAddress",
      "outputs": [
        {
          "internalType": "address",
          "name": "",
          "type": "address"
        }
      ],
      "stateMutability": "view",
      "type": "function"
    },
    {
      "inputs": [
        {
          "internalType": "uint256",
          "name": "agentId",
          "type": "uint256"
        },
        {
          "internalType": "address",
          "name": "token",
          "type": "address"
        },
        {
          "internalType": "uint256",
          "name": "amount",
          "type": "uint256"
        }
      ],
      "name": "withdraw",
      "outputs": [],
      "stateMutability": "nonpayable",
      "type": "function"
    }
  ],
  "bytecode": "0x608060405234801562000010575f80fd5b506040516200114338038062001143833981016040819052620000339162000234565b33806200005a57604051631e4fbdf760e01b81525f60048201526024015b60405180910390fd5b6200006581620001c9565b5060017f9b779b17422d0df92223018b32b4d1fa46e071723d6817e2486d003becc55f00556001600160a01b038316620000e25760405162461bcd60e51b815260206004820152601560248201527f4167656e744e4654207a65726f20616464726573730000000000000000000000604482015260640162000051565b6001600160a01b0382166200012e5760405162461bcd60e51b815260206004820152601160248201527055534443207a65726f206164647265737360781b604482015260640162000051565b6001600160a01b038116620001865760405162461bcd60e51b815260206004820152601460248201527f50415448555344207a65726f2061646472657373000000000000000000000000604482015260640162000051565b600180546001600160a01b039485166001600160a01b0319918216179091556002805493851693821693909317909255600380549190931691161790556200027b565b5f80546001600160a01b038381166001600160a01b0319831681178455604051919092169283917f8be0079c531659141344cd1fd0a4f28419497f9722a3daafe3b4186f6b6457e09190a35050565b80516001600160a01b03811681146200022f575f80fd5b919050565b5f805f6060848603121562000247575f80fd5b620002528462000218565b9250620002626020850162000218565b9150620002726040850162000218565b90509250925092565b610eba80620002895f395ff3fe608060405234801561000f575f80fd5b5060043610610106575f3560e01c806370c27b861161009e578063bc157ac11161006e578063bc157ac114610242578063c4d1c05014610255578063d38bcdee14610268578063e63697c81461027b578063f2fde38b1461028e575f80fd5b806370c27b861461020f578063715018a6146102225780638456cb591461022a5780638da5cb5b14610232575f80fd5b80633fd773e9116100d95780633fd773e91461017f5780634182fc111461019257806354ce61b1146101a55780635c975abb146101f3575f80fd5b806302d454571461010a5780630c9c31bd1461013a57806333d8950d146101625780633f4ba83a14610177575b5f80fd5b60025461011d906001600160a01b031681565b6040516001600160a01b0390911681526020015b60405180910390f35b61014d610148366004610cfc565b6102a1565b60408051928352602083019190915201610131565b610175610170366004610cfc565b610335565b005b6101756103b5565b60015461011d906001600160a01b031681565b6101756101a0366004610cfc565b6103c7565b6101e56101b3366004610d1c565b6001600160a01b039283165f908152600460209081526040808320948352938152838220929094168152925290205490565b604051908152602001610131565b5f54600160a01b900460ff166040519015158152602001610131565b61017561021d366004610d55565b61043e565b6101756105d5565b6101756105e6565b5f546001600160a01b031661011d565b610175610250366004610d96565b6105f6565b60035461011d906001600160a01b031681565b610175610276366004610cfc565b610767565b610175610289366004610d96565b6107de565b61017561029c366004610cfc565b6109b3565b5f805f5b600381101561032f576001600160a01b038085165f9081526004602090815260408083208584528252808320600254909416835292905220546102e89084610ddc565b6001600160a01b038086165f9081526004602090815260408083208684528252808320600354909416835292905220549093506103259083610ddc565b91506001016102a5565b50915091565b61033d6109f0565b6001600160a01b03811661036c5760405162461bcd60e51b815260040161036390610df5565b60405180910390fd5b600180546001600160a01b0319166001600160a01b0383169081179091556040517f8e93c1fcbff5fd000613b01b07a53a21a778a4342e61ef697323874af3ad8dc2905f90a250565b6103bd6109f0565b6103c5610a1c565b565b6103cf6109f0565b6001600160a01b0381166103f55760405162461bcd60e51b815260040161036390610df5565b600380546001600160a01b0319166001600160a01b0383169081179091556040517fc9e11141ff220dbc057b5e16ec5f38867e21e02a9f72736ccf8ec1b6917360b0905f90a250565b6104466109f0565b61044f82610a70565b6001600160a01b038085165f908152600460209081526040808320878452825280832093861683529290529081205490821561048b578261048d565b815b90505f81116104d25760405162461bcd60e51b81526020600482015260116024820152704e6f7468696e6720746f2072657363756560781b6044820152606401610363565b8181111561051b5760405162461bcd60e51b8152602060048201526016602482015275416d6f756e7420657863656564732062616c616e636560501b6044820152606401610363565b6001600160a01b038087165f908152600460209081526040808320898452825280832093881683529290529081208054839290610559908490610e1b565b909155505060405163a9059cbb60e01b8152336004820152602481018290526001600160a01b0385169063a9059cbb906044016020604051808303815f875af11580156105a8573d5f803e3d5ffd5b505050506040513d601f19601f820116820180604052508101906105cc9190610e2e565b50505050505050565b6105dd6109f0565b6103c55f610af1565b6105ee6109f0565b6103c5610b40565b6105fe610b82565b610606610bac565b6106103384610bc7565b61061982610a70565b5f81116106565760405162461bcd60e51b815260206004820152600b60248201526a16995c9bc8185b5bdd5b9d60aa1b6044820152606401610363565b6040516323b872dd60e01b8152336004820152306024820152604481018290526001600160a01b038316906323b872dd906064016020604051808303815f875af11580156106a6573d5f803e3d5ffd5b505050506040513d601f19601f820116820180604052508101906106ca9190610e2e565b50335f90815260046020908152604080832086845282528083206001600160a01b038616845290915281208054839290610705908490610ddc565b90915550506040518181526001600160a01b03831690849033907fc490a74c1058132dffb93944d555ddd1817ae53b7367ea1126ff123b1b134a589060200160405180910390a461076260015f80516020610e6583398151915255565b505050565b61076f6109f0565b6001600160a01b0381166107955760405162461bcd60e51b815260040161036390610df5565b600280546001600160a01b0319166001600160a01b0383169081179091556040517f452d65e59c35db88e7a1f5b3da4583c2cff8c834228e93830035dfd9e36d137b905f90a250565b6107e6610b82565b6107ee610bac565b6107f83384610bc7565b61080182610a70565b5f811161083e5760405162461bcd60e51b815260206004820152600b60248201526a16995c9bc8185b5bdd5b9d60aa1b6044820152606401610363565b335f90815260046020908152604080832086845282528083206001600160a01b0386168452909152902054818110156108b05760405162461bcd60e51b8152602060048201526014602482015273496e73756666696369656e742062616c616e636560601b6044820152606401610363565b6108ba8282610e1b565b335f8181526004602081815260408084208a855282528084206001600160a01b038a1680865292529283902094909455905163a9059cbb60e01b8152908101919091526024810184905263a9059cbb906044016020604051808303815f875af1158015610929573d5f803e3d5ffd5b505050506040513d601f19601f8201168201806040525081019061094d9190610e2e565b50826001600160a01b031684336001600160a01b03167f6562355720ad5e9816350753de199edab487334dc9b97f1b15e35e1907ca7ed58560405161099491815260200190565b60405180910390a45061076260015f80516020610e6583398151915255565b6109bb6109f0565b6001600160a01b0381166109e457604051631e4fbdf760e01b81525f6004820152602401610363565b6109ed81610af1565b50565b5f546001600160a01b031633146103c55760405163118cdaa760e01b8152336004820152602401610363565b610a24610c89565b5f805460ff60a01b191690557f5db9ee0a495bf2e6ff9c91a7834c1ba4fdd244a5e8aa4e537bd38aeae4b073aa335b6040516001600160a01b03909116815260200160405180910390a1565b6002546001600160a01b0382811691161480610a9957506003546001600160a01b038281169116145b6109ed5760405162461bcd60e51b815260206004820152602360248201527f496e76616c696420746f6b656e3a206f6e6c792055534443206f7220504154486044820152621554d160ea1b6064820152608401610363565b5f80546001600160a01b038381166001600160a01b0319831681178455604051919092169283917f8be0079c531659141344cd1fd0a4f28419497f9722a3daafe3b4186f6b6457e09190a35050565b610b48610b82565b5f805460ff60a01b1916600160a01b1790557f62e78cea01bee320cd4e420270b5ea74000d11b0c9f74754ebdbfc544b05a258610a533390565b5f54600160a01b900460ff16156103c55760405163d93c066560e01b815260040160405180910390fd5b610bb4610cb2565b60025f80516020610e6583398151915255565b600154604051627eeac760e11b81526001600160a01b038481166004830152602482018490525f92169062fdd58e90604401602060405180830381865afa158015610c14573d5f803e3d5ffd5b505050506040513d601f19601f82011682018060405250810190610c389190610e4d565b11610c855760405162461bcd60e51b815260206004820152601e60248201527f43616c6c657220646f6573206e6f74206f776e2074686973206167656e7400006044820152606401610363565b5050565b5f54600160a01b900460ff166103c557604051638dfc202b60e01b815260040160405180910390fd5b5f80516020610e65833981519152546002036103c557604051633ee5aeb560e01b815260040160405180910390fd5b80356001600160a01b0381168114610cf7575f80fd5b919050565b5f60208284031215610d0c575f80fd5b610d1582610ce1565b9392505050565b5f805f60608486031215610d2e575f80fd5b610d3784610ce1565b925060208401359150610d4c60408501610ce1565b90509250925092565b5f805f8060808587031215610d68575f80fd5b610d7185610ce1565b935060208501359250610d8660408601610ce1565b9396929550929360600135925050565b5f805f60608486031215610da8575f80fd5b83359250610db860208501610ce1565b9150604084013590509250925092565b634e487b7160e01b5f52601160045260245ffd5b80820180821115610def57610def610dc8565b92915050565b6020808252600c908201526b5a65726f206164647265737360a01b604082015260600190565b81810381811115610def57610def610dc8565b5f60208284031215610e3e575f80fd5b81518015158114610d15575f80fd5b5f60208284031215610e5d575f80fd5b505191905056fe9b779b17422d0df92223018b32b4d1fa46e071723d6817e2486d003becc55f00a2646970667358221220823ed938bd50daaea853c875d1843e892259a77e26e73d58edc98bffc80f9fc364736f6c63430008180033",
  "linkReferences": {},
  "deployedLinkReferences": {}
}